:100000000C9416010C944E010C944E010C944E016C
:100010000C944E010C944E010C944E010C944E0124
:100020000C944E010C944E010C94361B0C94091C3C
:100030000C9436160C944E010C944E010C944E0107
:100040000C944E010C944E010C944E010C944E01F4
:100050000C944E010C94CE160C944E010C944E014F
:100060000C944E010C944E010C944E010C944E01D4
:100070000C944E010C944E010C944E010C944E01C4
:100080000C944E010C944E010C944E010C944E01B4
:100090000C944E010C944E010C944E010C944E01A4
:1000A0000C944E010C944E010C944E0156005F00CE
:1000B0006000610000002C005C005D005E005800E4
:1000C0001603680061006C0066006E0075006D002C
:1000D00070006100640000000A0354004F004400F7
:1000E0004F0000000403090409023B00020100A0C4
:1000F000FA090400000103010100092111010001B6
:1001000022400007058103080001090401000103E2
:1001100000000009211101000122B6000705820339
:100120002000011201000200000008EDFE000000A6
:10013000010102000105010902A10185020901A1D5
:100140000005091901290815002501950875018187
:10015000020501093009311581257F950275088155
:100160000609381581257F950175088106050C0A59
:1001700038021581257F950175088106C0C00501EB
:100180000980A101850319012AB700150126B700CE
:10019000950175108100C0050C0901A101850419A4
:1001A000012AA002150126A002950175108100C048
:1001B00005010906A1018506050719E029E71500D3
:1001C00025019508750181020507190029EF150021
:1001D000250195F07501810205081901290595058C
:1001E00075019102950175039101C005010906A1F0
:1001F00001050719E029E71500250195087501811A
:10020000029501750881010507190029FF150026CF
:10021000FF00950675088100050819012905950557
:1002200075019102950175039101C00011241FBE53
:10023000CFEFDAE0DEBFCDBF04B603FE18C0809179
:10024000820290918302A0918402B091850287304E
:10025000904BA740B04B59F4109282021092830247
:100260001092840210928502E0E0F8E3099511E013
:10027000A0E0B1E0EAEAFDE302C005900D92A638E5
:10028000B107D9F722E0A6E8B1E001C01D92A2387B
:10029000B207E1F70E944E100C94811E0C940000EE
:1002A000811112C0623080F4453070F4E42FF0E028
:1002B00085E0689FE00DF11D1124EE0FFF1FE4554E
:1002C000FF4F85919491089581E090E008950E94F8
:1002D0005001089581E008950E946A01089581E027
:1002E00008950E946A0108950E9471010895089579
:1002F0000E9477010895A6E0B0E0E1E8F1E00C94F7
:10030000DD1D49835A839E8330918D0189819A81B5
:1003100031111AC03E81332399F0222389F00E94C3
:100320001A07182F682F89819A810E94F606698121
:100330007A81812F0E94E20D2696E3E00C94F91D4C
:100340000E940807182FF3CF0E941A0769817A814B
:10035000F1CFFC01262F408151816281738184811C
:1003600095810E947B010895CF93DF93D82FC92FE9
:1003700061E00E94A9016D2F7C2F0E946C01DF912A
:10038000CF910895CF93DF93D82FC92F60E00E94BB
:10039000A9016D2F7C2F0E947801DF91CF910895E4
:1003A00008950E94C8050E94D0012FEF84E39CE0CD
:1003B000215080409040E1F700C0000008950E9465
:1003C000D1010E94F21608950E94D1010E941617D1
:1003D00008950F931F93CF93DF938C0161E00E94E8
:1003E000A901EC01B8010E9474018823B1F1B801A0
:1003F000CE010E945014882381F1B801CE010E94E1
:10040000DA12882351F1B801CE010E94B613882375
:1004100021F1F8018581882381F0CA35FCE7DF07E7
:1004200039F178F4C130ECE7DE07F9F0C330FCE7CE
:10043000DF07C9F0C115DC4771F0C8010E946F01E8
:100440000DC0CB35ECE7DE07B1F0CC35DC47A9F7C2
:100450000E943B0BF2CF0E94DF0180E0DF91CF9141
:100460001F910F9108950E944D0B0E94E401F5CF5A
:100470000E94450BE2CF0E94490BDFCF0E9411166C
:100480000E94650208950E9469020E94161608954E
:10049000089581E008950895CF93DF93D82F0E94A7
:1004A0004902C82F882319F08D2F0E944B028C2FF0
:1004B000DF91CF9108950895CF93C82F0E944802ED
:1004C0008C2F0E944C02CF91089580E00E945C0224
:1004D00008950E949B140E945C020895CF930E948D
:1004E0009B14C82F809188018C1779F0C0938801E4
:1004F0000E94A2166093890170938A0180938B01F8
:1005000090938C018C2F0E945C02CF910895ADE0F6
:10051000B0E0EDE8F2E00C94DE1D488759876A8769
:100520007B878C879D8791110E94700A1F8286E0CD
:10053000FE013896DE01119601900D928A95E1F741
:100540008D8181110DC029813A814B815C816D8142
:100550007E818F810E949F092D96E2E00C94FA1D06
:10056000CE0101960E94B4018111EDCFF5CFFC01BF
:100570008481813021F4808191810E944C0708950B
:10058000662329F00E94DF100E94A01108950E94A6
:100590002811FACFCF93C82F8823B9F08CEF8C0F96
:1005A000813AA8F46C2F80910001909101010E9482
:1005B0003415882329F08C2F0E942D0A0E94AB0A43
:1005C0008C2F0E94250A0E94AB0ACF91089580E2E9
:1005D0008C0F883048F4C77081E001C0880FCA953D
:1005E000EAF70E94510AEFCF8BE58C0F833038F485
:1005F0002C2F2452330BC9010E94D214E6CFE8E518
:10060000EC0FEB3150F4F0E0EE0FFF1FED5EFE4F0C
:10061000808191810E94F814D8CF83E38C0F8331BD
:10062000A0F661E08C2F0E94C002CFCF882381F119
:100630009CEF980F913A28F40E942D0A0E94AB0A71
:10064000089590E2980F983050F4877091E001C0BF
:10065000990F8A95EAF7892F0E94570AEFCF9BE5F9
:10066000980F933028F480E090E00E94D21408950F
:1006700098E5980F9B3128F480E090E00E94F814F0
:10068000089593E3980F933118F460E00E94C0023C
:1006900008951F93CF93DF93182FEB010E94CA0296
:1006A000209739F4812F0E941603DF91CF911F917B
:1006B00008958FE99FE00197F1F700C000002197AE
:1006C000EFCF60E070E0893311F460E570E00E94E4
:1006D00049030895882321F00E94510A0E94AB0A21
:1006E0000895882321F00E94570A0E94AB0A0895BA
:1006F000A0E0B0E0EEE7F3E00C94D81D6C01D62F3B
:10070000C72FFC011581068102950F700E94460AD1
:10071000E82E8823E9F0E12E1123D1F08C2F807F81
:10072000803451F080E28D0F8830E0F0011104C078
:100730008C2F807E8032B1F080916C0282FF12C0DB
:1007400082E00E940E0B0E94460A91E0E82EE92604
:10075000EC2FE295EF70C03CB0F5F0E0ED57F14EB4
:100760000C94C81DE12CF4CF0C2F0F70C03110F089
:100770000295007F112399F0002359F080E28D0F3C
:10078000883010F0D11107C0802F0E94510A0E94BA
:10079000AB0A8D2F51C0802F0E94620AF8CF8D2F97
:1007A0000E941603002379F080E28D0F883010F04C
:1007B000D11104C0802F0E94570A03C0802F0E94CD
:1007C000680A0E94AB0AEE2089F00E94420A80FD6E
:1007D0000DC0F60115820E943C0A0E945306C60114
:1007E0000E948F050E943C0A0E946306CDB7DEB7C7
:1007F000E8E00C94F41DFC2FFF70FF2EC07FC03288
:1008000019F0F29480EFF822DD2341F0D130D1F1DC
:10081000112309F444C00023F1F0BBCF80916C0296
:1008200082FD15C0112359F0FF2029F08F2D0E9461
:10083000510A0E94AB0A80E00E94CA02C4CF80E045
:100840000E941603FF2009F4BECF8F2DB4CF1123D1
:1008500069F0011104C08F2D0E946A03B4CF0130EA
:1008600009F0B1CF8F2D0E94880AADCF0111ABCF17
:100870008F2D0E9471038F2D0E94940A8F2D0E944C
:10088000770AA1CF112321F0063008F09CCFE3CFE7
:10089000053008F098CF8F2D0E94710394CF00236C
:1008A000D1F3D93349F42FEF87EE93E02150804004
:1008B0009040E1F700C000008D2F0E94160383CF07
:1008C0008C2F869586958370882369F0813009F096
:1008D0007ACF8D2F9C2F9370111102C080E090E091
:1008E0000E94F81470CF8D2F9C2F9370111102C0AD
:1008F00080E090E00E94D21466CF612F8D2F0E947D
:10090000C00261CF8C2F8370811139C0111129C0B1
:100910004D2F429546954770440F440F2D2F2F7051
:1009200030E0042E02C0220F331F0A94E2F780E069
:1009300090E0D4FF09C08FE090E002C0880F991FBB
:100940004A95E2F780959095C695C695C370822B1F
:10095000932BC23071F0C33079F0C13039F00E946E
:1009600023060E949B140E945C022DCF0E941A064F
:10097000F8CF0E942C06F5CF0E941706F2CF112364
:1009800061F1C0FFEECF4D2F429546954770440F61
:10099000440F2D2F2F7030E0042E02C0220F331F82
:1009A0000A94E2F780E090E0D4FF09C08FE090E085
:1009B00002C0880F991F4A95E2F780959095C695D9
:1009C000C695C370822B932BC23069F0C33071F08F
:1009D000C13031F00E948E06C4CF823010F2D3CFE6
:1009E0000E948506BECF0E949706BBCF0E943B06A1
:1009F000B8CFCF70112339F08C2F0E9453068D2F62
:100A00000E946A03AECF8D2F0E9471038C2F0E942B
:100A10006306A7CFD23F31F170F4D03FB9F0D13F98
:100A2000B1F1112309F451C0002309F44BC08D2FFB
:100A30000E94CA0296CFD33FE1F0D43F21F11111B9
:100A4000F3CF011150C08C2F8F71E1CF112341F0F2
:100A5000053008F086CF8C2F8F710E94750681CFEC
:100A60000530F7CF8C2F8F711111D1CF0E94530613
:100A700078CF112329F08C2F8F710E94470671CFF8
:100A80000E9442066ECF80916C0282FD06C08C2FC0
:100A90008F71112309F4BBCFE9CF112349F0CF7136
:100AA0008C2F0E94530663E08C2F0E94F00A59CFCE
:100AB00081E00E940E0B023008F453CF82E00E94C6
:100AC0000E0B4FCF8C2F8F71D1CF002309F4BBCFEA
:100AD000D93349F4EFEFF7EE23E0E150F040204046
:100AE000E1F700C000008D2F0E9416033ACF0F934C
:100AF0001F93CF93DF93EC01688179818D810E94F0
:100B000059078C010E94A0060E941606B801CE016A
:100B10000E947803DF91CF911F910F910895CF9399
:100B2000DF93EC018C81882399F0CE010E94E901CA
:100B3000811111C00E94460A882351F08D818823BB
:100B400039F080916C0282FF03C082E00E940E0B9C
:100B5000DF91CF910895CE010E947705CE010E94CA
:100B6000C201F6CF80E090E00E94D21480E090E0D5
:100B70000E94F8140E94700A0E94AB0A0E94BD11E4
:100B80000E94A01108950E94350A0E94B20508959E
:100B90000E945F0A0E94C3050895282F92959F70B6
:100BA000963091F060F4925F9F70923030F481E063
:100BB000203F79F030F4283E30F080E008959A5FCD
:100BC000F3CF243FD1F7089581E0283EE0F3213FA1
:100BD000F9CF0895FC018481882339F080819181C7
:100BE0000E944C070E94CD05089580E00895A6E07C
:100BF000B0E0EDEFF5E00C94DE1D2696E2E00C94FB
:100C0000FA1DA7E0B0E0E7E0F6E00C94DE1D2796C1
:100C1000E2E00C94FA1D08950E940B0608950E94CC
:100C20000C069093990180939801089508950E946D
:100C30000F0608952091980130919901822B932BF2
:100C40000E940F0608952091980130919901822306
:100C500093230E940F0608952091980130919901E5
:100C6000822793270E940F0608950E940B0608957D
:100C70000E94350608950E9438069093970180934C
:100C80009601089580E090E00E943B06089521E0DF
:100C900030E0A90102C0440F551F8A95E2F7CA014E
:100CA0000E943B06089521E030E002C0220F331F6E
:100CB0008A95E2F78091960190919701822B932B70
:100CC0000E943B06089521E030E002C0220F331F4E
:100CD0008A95E2F720953095809196019091970141
:100CE000822393230E943B06089521E030E002C056
:100CF000220F331F8A95E2F7809196019091970118
:100D0000822793270E943B060895209196013091F7
:100D10009701822B932B0E943B0608952091960108
:100D200030919701822393230E943B0608952091DE
:100D3000960130919701822793270E943B060895E0
:100D400008959B01677091E001C0990F6A95EAF7D9
:100D500063E0369527956A95E1F7220F331F220F3E
:100D6000331FFA01E20FF31F40E050E0682F70E0FC
:100D70008191DF0111979B01042E02C036952795C2
:100D80000A94E2F7217021952827292328272C93FC
:100D90004F5F5F4F4430510559F708959C01982FDC
:100DA000977083E0369527958A95E1F7220F331FD8
:100DB000220F331FFB01E20FF31F40E050E080E001
:100DC000219130E0092E02C0369527950A94E2F76A
:100DD00021703327042E01C0220F0A94EAF7822BD8
:100DE0004F5F5F4F4430510559F70895282F862FE4
:100DF000923068F4253058F4622F70E025E0929F1D
:100E0000600D711D11244EE851E00E94A106089565
:100E1000292F923068F4853058F490E06EE871E044
:100E200035E0239F800D911D11240E94CE06089568
:100E300080E00895A0E0B0E0E0E2F7E00C94D71D78
:100E40008C01E0909601F09097018091980190912B
:100E50009901E82AF92ACFE0D0E0CC24C394D12C20
:100E6000C6010C2E02C0880F991F0A94E2F78E214A
:100E70009F21892B49F4219798F7B12C8B2DCDB761
:100E8000DEB7E9E00C94F31DBC2EB8018C2F0E9454
:100E9000EE0D019781F3F2CFCF93DF93D82FC92FB7
:100EA0000E941A076D2F7C2F0E94EE0DDF91CF91CB
:100EB00008951F93CF93DF93162FD72F90918D0115
:100EC000992341F0862F972F0E944C07DF91CF91F5
:100ED0001F910895882381F0862F972F0E941A076B
:100EE000C82F682F812F9D2F0E94F606612F7D2F1E
:100EF0008C2F0E94EE0DEACF862F972F0E940807B5
:100F0000C82FF4CF0F931F93CF93E0919A01C7E0BE
:100F100080919B018E1304C0CF911F910F91089572
:100F20000E2F10E0CE9FF0011124E456FE4F2081D9
:100F30003181428153816481758186810E940106DD
:100F4000F8013196E770E4CF2091D4013091D501BA
:100F50004091D6015091D7016091D8017091D9018B
:100F60008091DA010E94010608958091DA018031B2
:100F700078F48091D901882359F0E0919A01209169
:100F80009B013091D5014091D40157E02E1301C04F
:100F900008956E2F70E05E9FF0011124DF01A456CA
:100FA000BE4F14968C911497882361F111968C9101
:100FB0001197831327C08C91841324C015968C91AC
:100FC000159781111FC012968D919C91A091D60109
:100FD000B091D7018A1B9B0B883C910598F48091B6
:100FE000DA018F7080618093DA01EE55FE4F8081C7
:100FF0008F708061808384ED91E00E948F050E9454
:1010000082070895FB013196E770C0CFE0919A0105
:1010100090919B0127E0E91302C080E00895AE2F74
:10102000B0E02E9FF0011124E456FE4F31813613BB
:1010300006C03081381303C03581341304C0FD016C
:101040003196E770E8CF81E008958F929F92AF923A
:10105000BF92DF92EF92FF920F931F93CF93DF9394
:10106000CDB7DEB72D970FB6F894DEBF0FBECDBF5C
:101070008C0186E0F801DE01189601900D928A95A8
:10108000E1F7F801E080F580A280B380848194EDDF
:10109000892E91E0992E9091D80191111BC088233F
:1010A00009F4FCC0FF2009F43DC1C8010E94EA0513
:1010B000882309F437C187E0F801D40101900D922B
:1010C0008A95E1F7C4010E94B7020E94B5070E9409
:1010D000A407E4C0D090D9012091D6013091D70166
:1010E000A501421B530BDD2009F4DBC0483C510530
:1010F00008F0A6C0882309F4D1C09091D501918051
:101100008091DA01803108F06BC0991228C090916B
:10111000D4019E1124C0F1105DC08F708061809356
:10112000DA010E94A40784ED91E00E948F0580916E
:10113000DA01F8018683F12C8F2D2D960FB6F894E5
:10114000DEBF0FBECDBFDF91CF911F910F91FF90FA
:10115000EF90DF90BF90AF909F908F900895F11027
:1011600039C040E0692D8E2D0E94060840E0692DAF
:101170008E2D0E940608F82E8111DDCF8885998575
:101180000E944C07292F22952F70903450F49F70A5
:10119000223080F0992399F0F8019681903178F40B
:1011A000CBCF2A5F2F70223078F0C8010E948F05C4
:1011B000FD2CC2CF992319F0882309F4BDCF805E9E
:1011C000883008F4B9CFF1CF803F08F4B5CF815F04
:1011D0008230F7CF8091DA0181608093DA01ABCF62
:1011E000991207C09091D4019E1103C0FF2009F409
:1011F00079C0C8010E94EA05882309F493C0FF2042
:1012000009F490C08091DA01803288F02091D401F5
:101210003091D5013A832983BC82AB829091D80169
:101220009D831E828F83CE0101960E948F0587E0E9
:10123000F801A4EDB1E001900D928A95E1F745CF58
:101240009091DA019031A0F4488559856A857B85B3
:101250008C859D850E94F70584ED91E00E948F05A5
:1012600087E0F40111928A95E9F70E94A40763CF01
:101270008823A1F02091D50181812813BACF8091D4
:10128000D4018E11B6CFF110B4CF9683C8010E945D
:101290008F0587E0F40111928A95E9F7FF24F39412
:1012A0004BCF483C510508F041C08823B9F3FF20DB
:1012B000C9F19091D501818198132AC08091D40100
:1012C0008E1126C08091DA0180FD19C08031B8F0FE
:1012D0008683807F803F39F08681982F907F905F52
:1012E0008F70892B8683C8010E948F0587E0F801E3
:1012F000A4EDB1E001900D928A95E1F7E8CE87E088
:10130000F801A4EDB1E001900D928A95E1F7C6CF06
:10131000C8010E94EA0581118ACF8091DA018160BB
:101320008093DA01C8010E948F05B8CF488559859E
:101330006A857B858C859D850E94F70591CFAEE0FF
:10134000B0E0E5EAF9E00C94DD1D288739874A878B
:101350005B876C877D878E87CE0108960E94250863
:101360008823B1F06C85662341F0288539854A854C
:101370005B857D858E850E94010617E080919A012C
:1013800090919B0189133EC02E96E3E00C94F91DC9
:1013900087E0FE013896DE01119601900D928A9544
:1013A000E1F720919B0140919A018C85882329F3D4
:1013B00030E0C90101968770992750E0841795079E
:1013C00099F097E0929FD001939FB00D1124A456FD
:1013D000BE4FFE01319601900D929A95E1F78093F0
:1013E0009B010E948207C9CF0E94C80510929B01F1
:1013F00010929A0187E0E4EDF1E0DF011D928A95F9
:10140000E9F7BBCF189FC001112484569E4F0E945C
:101410002508882309F4B8CFE0919A011E9FF001B6
:101420001124E456FE4F2081318142815381648131
:10143000758186810E94010680919A0190E0019653
:101440008770992780939A0199CF682F8091000126
:10145000909101010E94BB150895682F80910001B1
:10146000909101010E94C915089580910001909109
:1014700001010E94D71508958091FB0186958695FC
:10148000869508958091FB01877008959091FB01E6
:10149000977081E0911101C080E0089580911F0252
:1014A000089590911F02982B90931F020895982FF2
:1014B000909580911F02892380931F0208951092B6
:1014C0001F02089590911E02982B90931E0208957A
:1014D000982F909580911E02892380931E02089573
:1014E00010921E02089508950E94730A0895909123
:1014F000FC01292F2823222331F080958923809312
:10150000FC010E94740A089508950E94840A0895B7
:101510009091FD01292F2823281729F0982B9093CB
:10152000FD010E94850A08959091FD01292F28232D
:10153000222331F0809589238093FD010E94850A42
:1015400008958091FD01882329F01092FD0180E02B
:101550000E94850A0895CF93DF93E0910001F091F6
:10156000010180911F028083E0910001F09101014F
:10157000808190911E02892B80839091FD01992397
:1015800081F0E0910001F09101018081892B80833D
:1015900080910001909101010E941E1581110E940D
:1015A000A10AC0910001D091010140E250E06BED31
:1015B00071E0CE010E94191E892B59F080E2FE01D4
:1015C000ABEDB1E001900D928A95E1F7CE010E945A
:1015D000A814DF91CF91089508950E94EC0A089510
:1015E00090916C0292FF11C098E0899F90011124A4
:1015F000622B6093FB010E9453068091FB0186954C
:10160000869586950E94ED0A08950E9453060895D6
:101610001092FB0180E00E94ED0A08959091FB0179
:10162000809589238093FB01282F277021110DC0FD
:10163000891759F090916C0292FF07C086958695A4
:1016400086950E9463060E94080B089590916C0293
:1016500092FB222720F9281769F080FB92F99093DA
:101660006C0280916B0290916C020E946E0B82E082
:101670000E940E0B089580916C0282FB882780F9EE
:1016800091E089270E94260B089581E00E94260B95
:10169000089580E00E94260B08956FEF7FEF80E0B1
:1016A00090E00E946B1E089580E090E00E94371E3B
:1016B0009C0181E0263E3E4F09F080E0089582E0E3
:1016C00090E00E942F1E089583E090E00E942F1E5C
:1016D000089584E090E00E94371E0895BC0184E0E4
:1016E00090E00E946B1E0895AB01BC018FE090E07A
:1016F0000E945F1E0895AB01BC0183E190E00E944F
:101700005F1E089560E070E0CB010E947B0B08959E
:1017100060E070E0CB010E94740B0E94820B089580
:10172000A8E0B0E0E6E9FBE00C94DE1D66EE7EEF9B
:1017300080E090E00E946B1E60E082E090E00E94FA
:101740004D1E60E083E090E00E944D1E10929901D2
:101750001092980160E074E184E090E00E946B1EBA
:1017600060E086E090E00E944D1E6FEF87E090E021
:101770000E944D1E40E050E0BA0188E090E00E94D7
:101780005F1E60E084E290E00E944D1E60E087E111
:1017900090E00E944D1E60E08CE090E00E944D1EA3
:1017A00060E08DE090E00E944D1E19821A821B823B
:1017B0001C821D821E821F82188648E050E068E16C
:1017C00070E0CE0101960E943D1E40E050E0BA015B
:1017D00080E290E00E945F1E0E94880B2896E2E063
:1017E0000C94FA1D0E94900B0895682F8EE090E0F3
:1017F0000E944D1E0895A6E0B0E0E1E0FCE00C94EC
:10180000DC1D0E9496168C0180912002909121028D
:101810008017910779F019821A820E949616BC01EE
:1018200049815A8180E090E00E9487021093210252
:10183000009320022696E4E00C94F81D0E94A21664
:10184000609328027093290280932A0290932B02BE
:1018500060932402709325028093260290932702BE
:101860000895089508950E94320C089508950E94E5
:10187000360C089581E008958AED9EE00E9491144F
:101880000E94310C0E94330C08950E943A0C089576
:101890000E94450C0895089508950E944B0C0E94E3
:1018A0004C0C08950E94F90E0E945B0208950E945C
:1018B0008D160E94BB0F0E94520C0E94370C089597
:1018C000A6E0B0E0E6E6FCE00C94D61D0E943A0CDF
:1018D00081110AC00E94FB0B0E94DE110E946E0261
:1018E0002696EAE00C94F21D0E94CB0F1091220282
:1018F00080E00E941F0F181307C01091230281E09F
:101900000E941F0F181731F380912C0281FD0E9455
:10191000250F0E94480CC82E82E2A82E82E0B82E25
:1019200000E0802F0E941F0F182FF50191915F0199
:10193000891741F1D82ED926F12CEE24E3948D2D70
:101940008E218823B9F0CC20A9F0F9820A830E9465
:1019500096169C838B8381E08D8391E0812F8E216D
:10196000811101C090E049815A816B817C818D8118
:101970000E948702F394EE0CF5E0FF12E0CFF50130
:1019800031971083002319F00E941E0CA5CF01E0AF
:10199000C8CF1F93CF93DF930E94F30DEC01811505
:1019A00022E5920708F053C0811540E5940708F03E
:1019B000DDC0803E9105F8F48D3C910508F0AEC085
:1019C000883A910580F4853A910508F099C08130F4
:1019D000910521F00497813A910550F4CE01DF91F1
:1019E000CF911F910895885A91094B9708F48BC0A5
:1019F000C0E0D0E0F3CF811550E49507F8F4C115AD
:101A000080E2D80708F0CBC0C83ED10538F3CE013C
:101A10009A9581159F4160F78D2F0E94970E182F80
:101A2000CE0199270E94F30D212F30E0322F22277B
:101A3000E901CC27DF71C82BD92BD0CF99270E9481
:101A4000F30DCC27DF70C82BD92BD06AC7CF8038D5
:101A500042E59407C8F5803652E5950708F067C05F
:101A6000C03482E5D807B0F08C2F869586958770B4
:101A700020E2829FC0011124C37021E030E0A9015F
:101A800002C0440F551FCA95E2F7EA01C82BD92BB3
:101A9000DC68A4CFC03252E5D50708F041C08C2FD6
:101AA0008695869520E2829FC0011124C37021E0B3
:101AB00030E0A90102C0440F551FCA95E2F7EA01C0
:101AC000C82BD92BDD688ACF803C52E5950760F49E
:101AD0008F71C03AD24508F03FC090E0982F882718
:101AE000EC01C46FD06A7ACF805C9245809708F091
:101AF0007FCFDC2FCC27CC27DF71C06FD06A6ECFB1
:101B0000A497D0646BCFC85AD0E0CC0FDD1FC75B61
:101B1000DE4F0990D881C02DD46460CFD0655ECFF0
:101B2000CF71D0E0DC2FCC27C16FD06A57CF86951C
:101B30008695877020E2829FC0011124C37021E046
:101B400030E0A90102C0440F551FCA95E2F7EA012F
:101B5000C82BD92BDA6842CF0E94970EC82FD0E04D
:101B6000DC2FCC27CC27DF71D06238CF8F710E9459
:101B7000970E65E0D695C7956A95E1F7CF70D0E0EE
:101B8000DC2FCC27282F30E084FF05C054E0220F43
:101B9000331F5A95E1F7C22BD32BD0691FCF8D2F5E
:101BA0008F710E94970E182FCE0199270E94F30D76
:101BB000212F30E0322F222722273F71282B392B6B
:101BC000E901D2CF462F672F723028F4453018F440
:101BD0000E946701089580E090E008950E94E20D60
:101BE0000E94C90C0895803E9105D1F1C8F481335B
:101BF000910509F47FC048F48932910509F46FC05A
:101C00008A32910509F47DC0089589339105E1F088
:101C100082389105C9F08533910509F45BC00895B8
:101C2000843E9105D1F148F4823E910531F1833E25
:101C3000910541F181EE90E00895863E9105C1F154
:101C4000873E9105E1F1089520916B0223702111E7
:101C500065C020916C0223FF14C089E290E00895D2
:101C600020916B0220FD43C030916C0230FF09C00F
:101C700024FF4EC080E090E0089520916B0222FD89
:101C8000F7CF089520916B0222FD45C030916C0280
:101C900030FD44C024FFF5CFEDCF20916C0221FF31
:101CA000F0CF80916B0284FDE5CF87EE90E0089540
:101CB00020916B0223FFE5CF24FDDCCFF6CF2091EE
:101CC0006B0223FD2EC030916C0231FFE3CF84EE16
:101CD00090E0089520916B0225FFD3CFBECF2091D5
:101CE0006B0225FD21C020916C0223FFCACF89E33E
:101CF00090E0089520916B0226FFC3CF8AE290E026
:101D0000089520916B0226FFBCCF81E390E00895F7
:101D100083EE90E0089582EE90E0089580EE90E0EA
:101D2000089586EE90E0089585E390E0AACF909123
:101D30006B0292FF06C0282F28712830F9F4877FA4
:101D4000846093FF06C0282F28712831F1F4877E24
:101D5000846120916C0220FF06C0382F3871383022
:101D6000D9F4877F816021FF06C0282F2871283190
:101D7000D1F4877E816194FD877E0895282F247198
:101D80002430F9F68B7F8860DCCF282F2471243132
:101D900001F78B7E8861DDCF382F3171313019F733
:101DA0008E7F8860E0CF282F2171213121F78E7E30
:101DB0008861E1CF80E008950E944D0B08950E9454
:101DC000CB0F2FEF86E791E0215080409040E1F764
:101DD00000C000000E94CB0F80E00E941F0F80FF18
:101DE00004C00E94DC0E0E94F21608950E94DF0ECD
:101DF00008950E94540B811102C00E94F20B0E94B0
:101E00005F0B80932C020E94690B90936C0280936D
:101E10006B020E94F60E0E94640B90E00E9417066F
:101E200080919601909197010E9438060895089537
:101E30000E94170F089508950E941B0F0895E82F20
:101E4000F0E0E159FD4F80810895089580EA8A9578
:101E5000F1F7089500C008950E94260F0895F894A0
:101E6000E82FE295EF70F0E041A18F7021E030E0C3
:101E7000B90102C0660F771F8A95E2F7CB01962F52
:101E80009095942391A392A1892B82A3789408958D
:101E9000CF93DF9385EF0E942F0F86EF0E942F0FC5
:101EA000CFE7D1E089918F3F11F00E942F0F81E0A1
:101EB000C438D807B9F7DF91CF910895A0E0B0E01A
:101EC000E4E6FFE00C94D81DEC01D62E062F10E0BE
:101ED000C8018C579E4F7C01FC0180818F3F09F423
:101EE00045C0F894E82FE295EF70F0E091A18F7073
:101EF00021E030E001C0220F8A95EAF7892F822B7A
:101F000081A382A12095282322A378940E942A0FDE
:101F1000EFE7F1E091E0C12C81918F3F81F0A82F94
:101F2000A295AF70A05EB0E02C9130E08F7002C03F
:101F3000359527958A95E2F72170892F211180E048
:101F4000C82A990F81E0E438F80731F7F70180815A
:101F50008F3F11F00E942F0F61E0C11001C060E0BF
:101F60008D2D0E942C0FC00FD11FC882CDB7DEB7B8
:101F7000E8E00C94F41D0E94480F10927002109239
:101F80006F0210926E0210926D0282E00E940010A9
:101F90000E94180F0895A2E0B0E0E1EDFFE00C947C
:101FA000DD1D1A82198260E0CE0101960E945E0F4B
:101FB00061E0CE0101960E945E0F42E050E0BE015A
:101FC0006F5F7F4F8DE692E00E94191E21E0892B02
:101FD00081F420E042E06FE672E08DE692E00E943C
:101FE0000110182F0E941C0F812F2296E3E00C9401
:101FF000F91D89819A8190936E0280936D02EACFD8
:102000000895A0E0B0E0E7E0F0E10C94D91DD82EEF
:10201000E92EF62E072FC42F222349F081E080936A
:102020002F020E94961690932E0280932D021091FB
:102030002F02111107C010E0812FCDB7DEB7E7E006
:102040000C94F51D80912D0290912E020E94BF16D6
:10205000059788F3D0E0AE016D2D7E2D8F2D902F4A
:102060000E94191E892B51F0AE016D2D7E2D8F2DF2
:10207000902F0E94261E10922F02DECF10E0FBCF81
:102080000E948E180E94570C0E949B1808950E946F
:10209000A0180E94600C0E94BA1808950E942F1682
:1020A0000E9474180E943C0C0E9440100E9447102D
:1020B0000E944D0CFBCF8091360280FF0DC06091D5
:1020C000070170E0660F771F60387105C0F5611574
:1020D0007105B9F1862F089581FF07C0609107014E
:1020E00084E0689FB0011124EFCF82FF04C06091AB
:1020F000070188E0F6CF809135028823E9F09091BE
:1021000006016091070170E0891730F093E0660FD7
:10211000771F9A95E1F7D8CF869F9001879F300D62
:10212000112483E0220F331F8A95E1F7692F70E0B5
:10213000C9010E94B41DC8CF68E070E0CBCF8FE723
:10214000089581E008958091360280FF0CC060916F
:10215000030170E075956795759567956115710533
:1021600061F1862F089581FF06C06091030170E040
:1021700075956795F3CF6091030170E082FD15C0FE
:10218000209134022223B1F0909102016091030169
:1021900070E0291750F4269FA001279F500D1124AD
:1021A000692F70E0CA010E94B41D60387105B0F259
:1021B0008FE7089561E070E0D4CF81E00895E3E314
:1021C000E80FE331E0F5F0E0E157F14E0C94C81D63
:1021D0000E945B10819580933A0208950E945B10E3
:1021E000FACF0E945B1081958093390208950E9476
:1021F0005B10FACF0E94A31080933B0208950E94C7
:10220000A3108195F9CF0E94A310819580933C0281
:1022100008950E94A310FACF815D990B21E030E070
:1022200001C0220F8A95EAF780913802822B8093B1
:1022300038020895809136028160809336020895B5
:10224000809136028260F9CF809136028460F5CFAA
:10225000409139028D3C59F480913A0287FF0DC0BC
:1022600010923A02442359F41092350208C08E3C71
:1022700081F480913A0218169CF3442381F08091F6
:102280003B0290913C02892B811159C0109234027B
:1022900008958F3C41F447FFF0CF109239028091AE
:1022A0003A028823E0CF803D19F41416B4F3E5CF49
:1022B00090913B02893D29F41916FCF610923B02DD
:1022C000DCCF8A3D19F497FFD8CFF8CF90913C022C
:1022D0008B3D29F497FFD1CF10923C02CECF8C3D9D
:1022E00019F41916CCF3C9CF9FE2980F983090F4E7
:1022F000815D990B21E030E0B90102C0660F771FC4
:102300008A95E2F7CB0180959091380289238093DA
:102310003802B3CF8D3D31F4809136028E7F8093A9
:102320003602ABCF8E3D21F4809136028D7FF7CF00
:102330008F3D09F0A2CF809136028B7FF0CF0895B8
:102340000E9496162091390230913A02232B2223C3
:1023500021F0809332029093330220913B0230911E
:102360003C02232B222321F08093300290933102F0
:1023700087E392E00E94C314089586E0E7E3F2E069
:10238000DF011D928A95E9F710923502109234020E
:10239000109236020895FC01828181110DC0838163
:1023A00081110AC08481811107C081E0958191115A
:1023B00001C080E08170089581E0FCCFA6E0B0E02C
:1023C000E4EEF1E10C94DB1D86E0E7E3F2E09E0130
:1023D0002F5F3F4FD90101900D928A95E1F710923E
:1023E000390210923A0210923B0210923C028B8109
:1023F0009C81892B8901882391F0809132029091F0
:1024000033020E94BF169C01809135028823C9F1D6
:102410004091080150E04217530708F43FC08D81F6
:102420009E81892B882399F080913002909131020E
:102430000E94BF169C0180913402882309F46DC06C
:102440004091040150E04217530708F474C0B801EA
:1024500087E392E00E94E915811105C087E392E0CD
:102460000E94CB1181110E94A01186E0F801A7E320
:10247000B2E001900D928A95E1F72696E5E00C9482
:10248000F71D409109019AE0499FA00111244217CC
:10249000530728F68F5F8093350202C08F3FD1F734
:1024A000FB80FF2059F00E945B1091E01F140CF09C
:1024B0009FEF899F802D112480933902FC80FF209B
:1024C00059F00E945B1091E01F140CF09FEF899F60
:1024D000802D112480933A0230913902332309F47C
:1024E0009ECF20913A02222309F499CF45EB340381
:1024F000C0011124892F911101C081E0809339021C
:1025000045EB240390011124332319F030933A0250
:1025100086CF81E080933A0282CF409105019AE014
:10252000499FA00111244217530708F090CF8F5FF5
:102530008093340202C08F3FD1F7FD80FF2059F015
:102540000E94A31091E01F140CF09FEF899F802D33
:10255000112480933B02FE80FF2059F00E94A310BB
:1025600091E01F140CF09FEF899F802D1124809320
:102570003C0230913B02332309F469CF20913C02A5
:10258000222309F464CF45EB3403C0011124892FC1
:10259000911101C081E080933B0245EB240390013F
:1025A0001124332319F030933C0251CF81E0809302
:1025B0003C024DCFCF93DF93EC01FB018581882353
:1025C00009F4D2C09E0130572332310508F0B2C061
:1025D0000E94690B90936C0280936B02FE01E150A4
:1025E000F047E232F10520F4EE55F14E0C94C81D8F
:1025F00080916B02816080936B0293C080916C022A
:10260000886080936C028DC080916B028260F3CFF2
:1026100080916B028460EFCF80916B028860EBCF7A
:1026200080916C028160EDCF80916C028260E9CF75
:1026300080916B028061DFCF80916B028062DBCF83
:1026400080916B028064D7CF0E94C80580916B0295
:102650008068D1CF80916B028C60CDCF80916C026D
:102660008360CFCF80916B028E7FC5CF80916C024B
:10267000877FC7CF80916B028D7FBDCF80916B022A
:102680008B7FB9CF80916B02877FB5CF80916C0231
:102690008E7FB7CF80916C028D7FB3CF80916B021C
:1026A0008F7EA9CF80916B028F7DA5CF80916B0229
:1026B0008F7BA1CF0E94C80580916B028F779BCF43
:1026C00080916B02837F97CF80916C028C7F99CF32
:1026D00080916B0282FB992790F921E0922790FB71
:1026E00082F990FB83F987CF80916C02982F9095A7
:1026F00091708E7F892B90FB81F983CF90916B0233
:10270000892F8F7B96FF806476CF0E94C8059091B9
:102710006B02892F97FB87F980586DCF81E00E946B
:10272000F50B80916B0290916C020E946E0B0E94DF
:10273000C80580E0DF91CF91089580E0F0CF9091BF
:102740006B02892F8F7E94FF806155CF90916B0231
:10275000892F8E7F90FF81604ECF90916C02892FE0
:10276000877F93FF88604DCF81E0E4CFCF93DF93E5
:10277000EB0186319C4719F50E944E0A9D819923F1
:10278000A1F08A7A91E0811101C090E090933D021E
:10279000882349F085E30E94250A0E94AB0A80E065
:1027A000DF91CF91089589E2F6CF80913D02882391
:1027B00021F085E30E942D0AF0CF89E2FBCF81E072
:1027C000EFCF0F931F93CF93DF93C42FD22FFC0132
:1027D00085818823C9F0409340020E949616909309
:1027E0003F0280933E0280E28C0F883040F4C77035
:1027F00081E001C0880FCA95EAF70E946A03DF9161
:10280000CF911F910F9108951091400214133CC075
:1028100080913E0290913F020E94BF16883C910534
:1028200098F5C0E2CD0F1D1741F180E2810F88308D
:1028300040F4177081E001C0880F1A95EAF70E94F2
:102840007103C83020F0802F0E946103D8CF91E03F
:102850008D2F877001C0990F8A95EAF7892F0E9402
:102860006A03802F0E946103D77081E001C0880F46
:10287000DA95EAF70E947103C2CF802F0E946103AC
:10288000C83008F0BCCFF0CF80E28C0F883008F061
:10289000B6CFC77081E001C0880FCA95EAF7EACFCA
:1028A0000F93FC01CB01E851FC47E730F10590F5AF
:1028B000EC53F14E0C94C81D06E221EE41EE6AE1A4
:1028C0007CE70E94E11380E00F91089507E225EE76
:1028D00045EE6BE17CE7F5CF06E221EE40EE68E1E4
:1028E0007CE7EFCF07E225EE44EE69E17CE7E9CF34
:1028F00006E221EE42EE6CE17CE7E3CF07E225EE53
:1029000046EE6DE17CE7DDCF08E221E045EE6EE1C9
:102910007CE7D7CFFB01858181111092400281E0D5
:10292000D3CF9093870180938601089590934602B8
:10293000809345020895E0914502F0914602309758
:1029400029F00190F081E02D0995089580E0089527
:10295000DC01E0914502F0914602309799F08091B8
:102960001201882351F080916B0287FF06C08C9181
:1029700011968C93119786E08C930280F381E02D61
:10298000CD0109950895DC01E0914502F0914602E0
:10299000309739F082E08C930480F581E02DCD01F1
:1029A00009950895A3E0B0E0E8EDF4E10C94DE1D94
:1029B0009C01809143029091440282179307A1F0F9
:1029C0003093440220934302E0914502F091460285
:1029D000309751F083E089833B832A830680F78117
:1029E000E02DCE01019609952396E2E00C94FA1DA4
:1029F000A3E0B0E0EEEFF4E10C94DE1D9C018091C9
:102A000041029091420282179307A1F03093420253
:102A100020934102E0914502F0914602309751F037
:102A200084E089833B832A830680F781E02DCE01F1
:102A3000019609952396E2E00C94FA1D9C012E5F05
:102A40003F4F80911201882321F080916B029DE11C
:102A500087FF95E080E0F90140812F5F3F4F4111F2
:102A60008F5F9150C0F708959C01662301F180911A
:102A700012018823F1F080916B0287FF1AC0462F64
:102A8000469546954695603F90F4677081E090E0EA
:102A900002C0880F991F6A95E2F7240F311DF901D2
:102AA000228130E02823392381E0232B71F480E058
:102AB0000895F9013296285F3F4F8191861721F0E2
:102AC000E217F307D1F7F3CF81E008959C01FC01F1
:102AD00032968FEF90E04191461751F08F3F19F4F5
:102AE000411101C0892F9F5F9630A9F78F3F09F4EC
:102AF0000895280F311D87FD3A95F90162830895E5
:102B00009C01FC013296285F3F4F8191861303C0E0
:102B1000DF0111971C92E217F307B9F70895FC0142
:102B2000862F869586958695603F60F4E80FF11DA7
:102B3000677021E030E001C0220F6A95EAF78281D8
:102B4000822B82830895FC01862F86958695869533
:102B5000603F80F4E80FF11D677081E090E09C0118
:102B600002C0220F331F6A95E2F7B9016095828196
:102B700068236283089520911201222339F0209165
:102B80006B0227FF03C00E948F1508950E946615EF
:102B9000089520911201222339F020916B0227FF22
:102BA00003C00E94A31508950E9480150895FC019A
:102BB000329680911201882351F080916B0287FF39
:102BC00006C08EE1DF011D928A95E9F7089586E03F
:102BD000F9CF46E050E00E94191E9C0181E0232BB2
:102BE00009F480E0089508950E94F31508958F5F19
:102BF000809347020E94F415089583E08093470272
:102C00000E94F41508950E94F715089581E08093BD
:102C100047020E94F41508950E940616089508952B
:102C200008950E9410160895089508950E940F16A1
:102C300008950E9414160E94CB0F0E94151680E082
:102C40000E941F0F811109C081E00E941F0F982F61
:102C500081E0911103C080E0089581E0089585B777
:102C6000806885BF85B7806885BF08951F921FB6AD
:102C70001F9211248F939F93AF93BF93809148022B
:102C8000811113C08091710290917202A091730220
:102C9000B09174024196A11DB11D80937102909371
:102CA0007202A0937302B0937402BF91AF919F918F
:102CB0008F911F901FBE1F901895809179028430CC
:102CC00031F10E943E021092480288E190E020E437
:102CD0000FB6F894A895809360000FBE2093600013
:102CE00083B7817F846083BF83B7816083BF78941B
:102CF000889583B78E7F83BF0FB6F894A89580918F
:102D00006000886180936000109260000FBE08959B
:102D10000E94C8050E944302089582E084BD93E0AA
:102D200095BD9AEF97BD80936E0008952FB7F894E4
:102D30008091710290917202A0917302B09174021D
:102D40002FBF0895A4E0B0E0E8EAF6E10C94DE1DA0
:102D50008FB7F89420917102309172024091730202
:102D60005091740229833A834B835C838FBF6981BE
:102D70007A818B819C812496E2E00C94FA1D9C015F
:102D80004FB7F8948091710290917202A0917302F2
:102D9000B09174024FBF821B930B089578941F92D9
:102DA0001FB61F9211248F939F93AF93BF9380916F
:102DB000710290917202A0917302B0917402019617
:102DC000A11DB11D8093710290937202A0937302B2
:102DD000B0937402BF91AF919F918F911F901FBECE
:102DE0001F90189581E08093E00080E28093D800E6
:102DF0001092C9008FE19EE40197F1F700C0000036
:102E000087E090EBDC018093820290938302A09391
:102E10008402B093850288E19CE00FB6F894A895EF
:102E2000809360000FBE90936000FFCF88E19CE02C
:102E30000FB6F894A895809360000FBE9093600041
:102E4000FFCF809169020895282FCB01BA013091FC
:102E500079023430E1F42F702093E9002FEF3091A4
:102E6000E80035FD07C035ED3A95F1F70000215037
:102E70002111F5CF2091E80025FF09C040E050E086
:102E80000E9432198091E8008E778093E8000895BF
:102E9000BC0143E050E082E00E9424170895BC0189
:102EA00046E050E082E00E9424170895CF93DF931C
:102EB000D82FC92F80911201811113C048E050E032
:102EC0006D2F792F81E00E94241780E2ED2FFC2FD7
:102ED000A9E4B2E001900D928A95E1F7DF91CF91DC
:102EE000089580916B0287FD06C048E081E050E0C4
:102EF0006D2F7C2FE8CF40E282E0F9CF80917802FD
:102F0000811109C00E94BA1A0E94171B8091E20029
:102F100084608093E20008951092780208950E94E0
:102F2000061608956091750281E0611101C080E08C
:102F30000E94FD1508959091790281E0943009F086
:102F400080E0609175020E940316089542E061ECF2
:102F500081E00E94361A42E261EC82E00E94361A59
:102F60009091790281E0943009F080E060917502DF
:102F70000E94F715089580917B02893089F148F409
:102F8000823009F4A0C0833009F45AC0813041F086
:102F900008958A3009F487C08B3009F46CC0089515
:102FA00080917A02813A09F04AC08091E800877FD7
:102FB0008093E80080917E0290917F02892B61F0DE
:102FC00060E080E090E070E00E9481198091E8006C
:102FD0008B778093E800089560E289E492E0F3CF74
:102FE00080917A02813259F580917E0290917F0220
:102FF000029728F58091E800877F8093E800809110
:10300000E80082FF18C09091F3008091F2000297CF
:1030100031F48091F100813011F0863021F48091FB
:10302000F100809369028091E8008B778093E8003B
:103030000E946A1A04C0809179028111E0CF08953C
:1030400080917A02813AD9F780917E0290917F0235
:10305000892BA9F78091E800877F8093E800809111
:10306000E80080FFFCCF809112018093F1008091F5
:10307000E8008E77DBCF80917A02813201F7809170
:103080007E0290917F02892BD1F68091E800877FA4
:103090008093E8000E946A1A80917C02809312015A
:1030A0000E94C805089580917A02813241F680918C
:1030B000E800877F8093E8000E946A1A80917D0271
:1030C00080936A02089580917A02813A09F0B7CF1D
:1030D0008091E800877F8093E8008091E80080FF7E
:1030E000FCCF80916A02C1CF84B7877F84BF0FB6BF
:1030F000F894A89580916000886180936000109298
:1031000060000FBE80E890E00FB6F89480936100F5
:10311000909361000FBE0E940C1608950E94BA1A87
:103120000E94171BE2EEF0E0808184608083789437
:103130000E949A1D08958AE091E00E9496140895D5
:1031400080917902853031F480917902853019F0CF
:103150000E94881608950E945D1680917702882348
:1031600099F30E941916882379F30E941C190E9472
:10317000C805EACF08959A014091800250918102DA
:103180000E94C3180895AC01CB01D901252F332724
:1031900023303105E1F058F421303105C9F12230F6
:1031A0003105D9F180E090E020E030E01EC021320E
:1031B000310521F122323105A9F7892BC1F16130A6
:1031C000710581F786EB90E025E331E00EC0CA017E
:1031D0009927413069F08230910569F0E4EEF0E022
:1031E000892B01F7849190E09F012D933C930895E2
:1031F000E8EDF0E0F7CFE0ECF0E0F4CF892B91F0D0
:103200006130710579F689E090E023E131E0EDCF9E
:1032100082E190E023E231E0E8CF8BE390E028EE1A
:1032200030E0E3CF89E090E02AEF30E0DECF80E4C9
:1032300090E02BEE31E0D9CF80E189BD82E189BDFC
:1032400009B400FEFDCF8091D8008F7D8093D80017
:103250008091E00082608093E0008091E00081FD39
:10326000FCCF0895AF92BF92CF92DF92FF920F935F
:103270001F93CF93DF936C01EB018A010E94891A9F
:10328000F82E811123C00115110539F0F801808154
:103290009181C81BD90BC80ED91EA12CB12C209727
:1032A000A9F08091E80085FD22C08091E8008E772A
:1032B0008093E80001151105A1F0F801808191814A
:1032C0008A0D9B1D9183808385E0F82E8F2DDF91E1
:1032D000CF911F910F91FF90DF90CF90BF90AF9053
:1032E00008950E94891A8823E1F2F82EEFCFF601A3
:1032F00081916F018093F1002197FFEFAF1ABF0A10
:10330000CECFFC019B0180918002909181028617B3
:10331000970718F0672B61F0C90140E0009771F43E
:1033200041110CC08091E80082FF35C080E0089513
:103330008091E8008E778093E800EECF20917902AB
:103340002223A9F12530A9F12091E80023FD2DC009
:103350002091E80022FDE6CF2091E80020FFDECF9B
:103360003091F3002091F200009719F028303105D8
:1033700058F041E02830310509F040E02091E800A4
:103380002E772093E800CACF41914093F100019736
:103390002F5F3F4FE9CF80917902882341F085303C
:1033A00041F08091E80083FFBDCF81E0089582E085
:1033B000089583E00895FC019B0180918002909123
:1033C00081028617970718F0672B61F0C90140E06A
:1033D000009771F441110CC08091E80082FF36C063
:1033E00080E008958091E8008E778093E800EECF2A
:1033F000209179022223B1F12530B1F12091E8002A
:1034000023FD2EC02091E80022FDE6CF2091E800A8
:1034100020FFDECF3091F3002091F200009719F0E9
:103420002830310558F041E02830310509F040E0FE
:103430002091E8002E772093E800CACF4491409372
:10344000F100319601972F5F3F4FE8CF80917902CD
:10345000882341F0853041F08091E80083FFBCCFA4
:1034600081E0089582E0089583E00895982F9730D1
:1034700028F08F708093E90081E008959093E9002F
:10348000242F762F50E0981731F07091EC002091A6
:10349000ED005091F00021FD02C09F5FE8CF309118
:1034A000EB003E7F3093EB003091ED003D7F309399
:1034B000ED003091EB0031603093EB007093EC0045
:1034C0002093ED005093F0002091EE0027FDE5CF12
:1034D00080E0089580917A0287FF13C08091E80010
:1034E00082FF06C08091E8008B778093E80004C0DB
:1034F000809179028111F2CF089580917902882319
:10350000D9F38091E80080FFF8CF8091E8008E77B2
:10351000ECCF2091E4003091E50095E6A90180917F
:10352000EC008170882331F08091E80080FF06C0B4
:1035300080E008952091E80022FD1BC0809179026F
:10354000882391F0853091F08091EB0085FD10C0CB
:103550002091E4003091E5004217530701F39150A8
:103560009111DCCF84E0089582E0089583E008950E
:1035700081E008950E94291B0E94311BE0EEF0E0DB
:10358000808181608083E8EDF0E080818F778083A7
:1035900019BCA7EDB0E08C918E7F8C9380818F7EDB
:1035A00080831092780208950F931F93CF93DF9337
:1035B0000E94291B0E94311BC8EDD0E088818F77C3
:1035C000888388818068888388818F7D888319BCFF
:1035D0001092790210927502109277021092760280
:1035E00000EE10E0F80180818B7F8083888181600C
:1035F000888342E060E080E00E94361AE1EEF0E06D
:1036000080818E7F8083E2EEF0E080818160808324
:10361000808188608083F80180818E7F80838881AB
:1036200080618883DF91CF911F910F910895E8ED1C
:10363000F0E080818F7E8083E7EDF0E08081816023
:10364000808384E082BF81E0809378020E94D41A54
:103650000895E8EDF0E080818E7F80831092E20093
:1036600008951092DA001092E10008951F920F92CF
:103670000FB60F9211242F933F934F935F936F9345
:103680007F938F939F93AF93BF93EF93FF9380911B
:10369000E10082FF0BC08091E20082FF07C08091B1
:1036A000E1008B7F8093E1000E94991D8091DA00F8
:1036B00080FF19C08091D80080FF15C08091DA008A
:1036C0008E7F8093DA008091D90080FF94C080E1E2
:1036D00089BD82E189BD09B400FEFDCF81E0809300
:1036E00079020E947E178091E10080FF19C08091CD
:1036F000E20080FF15C08091E2008E7F8093E2009F
:103700008091E20080618093E2008091D800806225
:103710008093D80019BC85E0809379020E949217AB
:103720008091E10084FF29C08091E20084FF25C0E0
:1037300080E189BD82E189BD09B400FEFDCF8091A1
:10374000D8008F7D8093D8008091E1008F7E809398
:10375000E1008091E2008F7E8093E2008091E200A0
:1037600081608093E20080917502882309F449C04A
:1037700084E0809379020E949B178091E10083FF8F
:1037800029C08091E20083FF25C08091E100877FFE
:103790008093E10082E0809379021092750280911B
:1037A000E1008E7F8093E1008091E2008E7F809324
:1037B000E2008091E20080618093E20042E060E0FC
:1037C00080E00E94361A8091F00088608093F000BB
:1037D0000E948F17FF91EF91BF91AF919F918F91B1
:1037E0007F916F915F914F913F912F910F900FBEFD
:1037F0000F901F90189519BC109279020E948C1797
:1038000072CF8091E30087FF02C083E0B2CF81E0F6
:10381000B0CF1F920F920FB60F921124FF920F9309
:103820001F932F933F934F935F936F937F938F9348
:103830009F93AF93BF93CF93DF93EF93FF9309EEE3
:1038400010E0F8018081C091EC00C795CC27C795A6
:103850008F70FC2EF82A1082C0EFD0E08881877F1D
:10386000888378940E94521CF801108288818860B5
:103870008883CF2DCF70C083FF91EF91DF91CF91DF
:10388000BF91AF919F918F917F916F915F914F9178
:103890003F912F911F910F91FF900F900FBE0F90AE
:1038A0001F901895AAE2B0E0E8E5FCE10C94DD1D5C
:1038B0008AE792E0FC0101962091F100208322E04A
:1038C00082389207B9F70E94BB178091E80083FF06
:1038D00038C080917A0290917B029A3090F5E92F5E
:1038E000F0E0E553F14E0C94C81D803889F0823821
:1038F00041F580917E028F70873018F58093E90042
:103900008091EB0085FB882780F91092E90006C0C2
:103910008091760290917702911182609091E800F7
:10392000977F9093E8008093F1001092F1008091CE
:10393000E8008E7723C0811116C080917C0281300F
:1039400011F18091E80083FF0AC08091E800877F31
:103950008093E8008091EB0080628093EB00AA9650
:10396000E3E00C94F91D823061F780917C0288239A
:1039700089F01092E9008091E800877F8093E80049
:103980000E946A1ADECF81E0933009F080E08093D4
:103990007702EFCF80917E028F702FEF280F2630B5
:1039A00080F68093E9002091EB0020FFE2CF933076
:1039B00031F48091EB0080628093EB00DACF90913C
:1039C000EB0090619093EB0021E030E0A90102C090
:1039D000440F551F8A95E2F74093EA001092EA00DF
:1039E0008091EB008860E8CF8111ABCF10917C0211
:1039F0001F778091E3008078812B8093E300809192
:103A0000E800877F8093E8000E946A1A8091E800AE
:103A100080FFFCCF8091E30080688093E30083E027
:103A2000111101C082E0809379028BCF80588230DF
:103A300008F087CF80917C0290917D028C3D53E00D
:103A4000950799F583E08A838AE289834FB7F894D2
:103A5000DE01139620E03EE051E2E32FF0E05093C8
:103A60005700849120FF03C082958F703F5F8F7055
:103A70008A30C8F0895C90E08D939D932F5F24314C
:103A800061F74FBF8091E800877F8093E8006AE28A
:103A900070E0CE0101960E9481198091E8008B7739
:103AA0008093E8004ECF805DE6CF60917E027091FA
:103AB0007F02AE014F5F5F4F0E94BB18BC01892B94
:103AC00009F43FCF8091E800877F8093E8008981E7
:103AD0009A810E94DB19E1CF803809F032CF8091C2
:103AE000E800877F8093E800809175028093F10061
:103AF0001ECF811126CF90917C02923008F021CF09
:103B00008091E800877F8093E800909375020E947F
:103B10006A1A80917502882331F084E080937902DB
:103B20000E94A6170ECF8091E30087FDF6CF81E0BB
:103B3000F5CF0895CF9380917902882399F08091F1
:103B4000E900C091EC00C795CC27C7958F70C82BB2
:103B50001092E9008091E80083FD0E94521CCF7012
:103B6000C093E900CF91089597FB072E16F40094B7
:103B700007D077FD09D00E94051E07FC05D03EF452
:103B8000909581959F4F0895709561957F4F089509
:103B9000EE0FFF1F0590F491E02D09942F923F92B4
:103BA0004F925F926F927F928F929F92AF92BF924D
:103BB000CF92DF92EF92FF920F931F93CF93DF93F9
:103BC000CDB7DEB7CA1BDB0B0FB6F894DEBF0FBE56
:103BD000CDBF09942A88398848885F846E847D84A3
:103BE0008C849B84AA84B984C884DF80EE80FD80A5
:103BF0000C811B81AA81B981CE0FD11D0FB6F8941B
:103C0000DEBF0FBECDBFED010895AA1BBB1B51E166
:103C100007C0AA1FBB1FA617B70710F0A61BB70B3C
:103C2000881F991F5A95A9F780959095BC01CD01E1
:103C30000895FB01DC0104C08D910190801921F4ED
:103C400041505040C8F7881B990B0895FB01DC01D7
:103C500002C001900D9241505040D8F70895F99953
:103C6000FECF92BD81BDF89A992780B50895A8E14D
:103C7000B0E042E050E00C94731EDC01A40FB51FCD
:103C80004150504048F0CB01840F951F2E910E9467
:103C90004E1E41505040D0F70895262FF999FECF7F
:103CA00092BD81BDF89A019700B4021639F01FBA8F
:103CB00020BD0FB6F894FA9AF99A0FBE08950396AC
:103CC000272F0E944E1E0E944D1E252F0E944E1E21
:103CD000242F0C944E1E0196272F0E944E1E0C94EA
:103CE0004D1EDC01CB01FC01F999FECF06C0F2BDEF
:103CF000E1BDF89A319600B40D9241505040B8F7AA
:103D00000895F894FFCFB403B403FB03FB036004EE
:103D10007D04E303E3038204F9040A050A05E810BD
:103D2000EE10F110F7100C110C110C110C110C11FC
:103D30000C110C110C11FA10FF10031109111A11BA
:103D4000201124113213A6133A13041308133E133F
:103D50000C1342134E1318139F131C1352132013EA
:103D600056137E1324135A1385132A1360136813F2
:103D70001013461314134A132E13641374138E1363
:103D80009D13FE123613AD136C1472145C1466147A
:103D900078147E148414751C9B1CA11C9B1CA11CF4
:0A3DA000F41C161DA11C6C1D791DFA
:103DAA00FE01280850011E0A1401211756174F1741
:103DBA00481701E200E900EA00B500B600B700CDF5
:103DCA00008301CC008A019201940121022302247A
:103DDA00022502260227022A02B300B4006F0070ED
:103DEA00009F01CB019F02A002E200E900EA00B5B0
:103DFA0000B600B700CD008301CC008A019201947D
:103E0A00012102230224022502260227022A02B3E2
:103E1A0000B4006F0070009F01CB019F02A002F75F
:063E2A0031333236F5F6DB
:00000001FF
